{
  "contractName": "QuoteRegistry",
  "abi": [
    {
      "constant": true,
      "inputs": [],
      "name": "owner",
      "outputs": [
        {
          "name": "",
          "type": "address"
        }
      ],
      "payable": false,
      "stateMutability": "view",
      "type": "function"
    },
    {
      "inputs": [],
      "payable": false,
      "stateMutability": "nonpayable",
      "type": "constructor"
    },
    {
      "constant": false,
      "inputs": [
        {
          "name": "_quote",
          "type": "string"
        }
      ],
      "name": "register",
      "outputs": [],
      "payable": false,
      "stateMutability": "nonpayable",
      "type": "function"
    },
    {
      "constant": true,
      "inputs": [
        {
          "name": "_quote",
          "type": "string"
        }
      ],
      "name": "ownership",
      "outputs": [
        {
          "name": "",
          "type": "address"
        }
      ],
      "payable": false,
      "stateMutability": "view",
      "type": "function"
    },
    {
      "constant": false,
      "inputs": [
        {
          "name": "_quote",
          "type": "string"
        },
        {
          "name": "_newOwner",
          "type": "address"
        }
      ],
      "name": "transfer",
      "outputs": [],
      "payable": true,
      "stateMutability": "payable",
      "type": "function"
    }
  ],
  "bytecode": "0x608060405234801561001057600080fd5b50336000806101000a81548173ffffffffffffffffffffffffffffffffffffffff021916908373ffffffffffffffffffffffffffffffffffffffff160217905550610584806100606000396000f300608060405260043610610062576000357c0100000000000000000000000000000000000000000000000000000000900463ffffffff1680636cbb6bc0146100675780638da5cb5b14610110578063f2c298be14610167578063fbf58b3e146101d0575b600080fd5b34801561007357600080fd5b506100ce600480360381019080803590602001908201803590602001908080601f016020809104026020016040519081016040528093929190818152602001838380828437820191505050505050919291929050505061024c565b604051808273ffffffffffffffffffffffffffffffffffffffff1673ffffffffffffffffffffffffffffffffffffffff16815260200191505060405180910390f35b34801561011c57600080fd5b506101256102e1565b604051808273ffffffffffffffffffffffffffffffffffffffff1673ffffffffffffffffffffffffffffffffffffffff16815260200191505060405180910390f35b34801561017357600080fd5b506101ce600480360381019080803590602001908201803590602001908080601f0160208091040260200160405190810160405280939291908181526020018383808284378201915050505050509192919290505050610306565b005b61024a600480360381019080803590602001908201803590602001908080601f0160208091040260200160405190810160405280939291908181526020018383808284378201915050505050509192919290803573ffffffffffffffffffffffffffffffffffffffff1690602001909291905050506103b3565b005b60006001826040518082805190602001908083835b6020831015156102865780518252602082019150602081019050602083039250610261565b6001836020036101000a038019825116818451168082178552505050505050905001915050908152602001604051809103902060009054906101000a900473ffffffffffffffffffffffffffffffffffffffff169050919050565b6000809054906101000a900473ffffffffffffffffffffffffffffffffffffffff1681565b336001826040518082805190602001908083835b60208310151561033f578051825260208201915060208101905060208303925061031a565b6001836020036101000a038019825116818451168082178552505050505050905001915050908152602001604051809103902060006101000a81548173ffffffffffffffffffffffffffffffffffffffff021916908373ffffffffffffffffffffffffffffffffffffffff16021790555050565b60006706f05b59d3b2000034101515156103cc57600080fd5b6001836040518082805190602001908083835b60208310151561040457805182526020820191506020810190506020830392506103df565b6001836020036101000a038019825116818451168082178552505050505050905001915050908152602001604051809103902060009054906101000a900473ffffffffffffffffffffffffffffffffffffffff1690508073ffffffffffffffffffffffffffffffffffffffff166108fc6706f05b59d3b200009081150290604051600060405180830381858888f193505050501580156104a8573d6000803e3d6000fd5b50816001846040518082805190602001908083835b6020831015156104e257805182526020820191506020810190506020830392506104bd565b6001836020036101000a038019825116818451168082178552505050505050905001915050908152602001604051809103902060006101000a81548173ffffffffffffffffffffffffffffffffffffffff021916908373ffffffffffffffffffffffffffffffffffffffff1602179055505050505600a165627a7a72305820458a8054450689ab02dac0a4daddf842db1e8c583e142a69a7c64d51032c1f450029",
  "source": "pragma solidity ^0.4.24;\n\ncontract QuoteRegistry {\n\n    address public owner;\n    mapping(string => address) quoteOwners;\n\n    constructor() public {\n        owner = msg.sender;\n    }\n\n    function register(string _quote) public {\n        quoteOwners[_quote] = msg.sender;\n    }\n\n    function ownership(string _quote) public view returns (address) {\n        return quoteOwners[_quote];\n    }\n\n    function transfer(string _quote, address _newOwner) public payable {\n        require(msg.value >= 0.5 ether);\n        address oldOwner = quoteOwners[_quote];\n        oldOwner.transfer(0.5 ether);\n        quoteOwners[_quote] = _newOwner;\n    }\n}\n\n\n\n",
  "sourcePath": "/Users/vmankena/Documents/blockchain-git/My-Smart-Contracts/QuoteRegistry/contracts/QuoteRegistry.sol",
  "compiler": {
    "name": "solc",
    "version": "0.4.24+commit.e67f0147.Emscripten.clang"
  },
  "schemaVersion": "2.0.0",
  "updatedAt": "2018-06-20T00:37:14.230Z"
}