{
  "contractName": "MultiSig",
  "abi": [
    {
      "constant": true,
      "inputs": [],
      "name": "owner",
      "outputs": [
        {
          "name": "",
          "type": "address"
        }
      ],
      "payable": false,
      "stateMutability": "view",
      "type": "function"
    },
    {
      "inputs": [],
      "payable": false,
      "stateMutability": "nonpayable",
      "type": "constructor"
    },
    {
      "payable": true,
      "stateMutability": "payable",
      "type": "fallback"
    },
    {
      "constant": false,
      "inputs": [],
      "name": "endContributionPeriod",
      "outputs": [],
      "payable": false,
      "stateMutability": "nonpayable",
      "type": "function"
    }
  ],
  "bytecode": "0x608060405234801561001057600080fd5b50336000806101000a81548173ffffffffffffffffffffffffffffffffffffffff021916908373ffffffffffffffffffffffffffffffffffffffff16021790555060008060146101000a81548160ff0219169083151502179055506101448061007a6000396000f30060806040526004361061004c576000357c0100000000000000000000000000000000000000000000000000000000900463ffffffff16806302b11082146100705780638da5cb5b14610087575b60001515600060149054906101000a900460ff16151514151561006e57600080fd5b005b34801561007c57600080fd5b506100856100de565b005b34801561009357600080fd5b5061009c6100f3565b604051808273ffffffffffffffffffffffffffffffffffffffff1673ffffffffffffffffffffffffffffffffffffffff16815260200191505060405180910390f35b60011515600060149054906101000a90505050565b6000809054906101000a900473ffffffffffffffffffffffffffffffffffffffff16815600a165627a7a723058209376d417caa6755a6a1d45e8b52b3a225e0bf90d8cf925e1465e44c96548d07e0029",
  "source": "pragma solidity ^0.4.20;\n/* import \"../homework/Abs\" */\ncontract MultiSig {\n  address public owner;\n  bool private contributionPeriodEnd;\n  mapping (address => uint) contributionsMap;\n\n\n  constructor () {\n    owner = msg.sender;\n    contributionPeriodEnd = false;\n  }\n\n  /* event ReceivedContribution(address indexed _contributor, uint valueInWei); */\n\n  modifier isContributionNotEnd() {\n    require(contributionPeriodEnd == false);\n    _;\n  }\n\n  function () payable isContributionNotEnd {\n  }\n\n  function endContributionPeriod() external {\n    contributionPeriodEnd == true;\n  }\n\n  /* function listContributors() external view returns (address[]); */\n  /* function getContributorAmount(address _contributor) external view returns (uint); */\n\n\n}\n",
  "sourcePath": "/home/venkatesh/india-training/June-24/truffle-uport/contracts/MultiSig.sol",
  "compiler": {
    "name": "solc",
    "version": "0.4.24+commit.e67f0147.Emscripten.clang"
  },
  "schemaVersion": "2.0.0",
  "updatedAt": "2018-06-27T10:54:43.980Z"
}