{
  "contractName": "SimpleRegistry",
  "abi": [
    {
      "anonymous": false,
      "inputs": [
        {
          "indexed": true,
          "name": "_from",
          "type": "address"
        },
        {
          "indexed": false,
          "name": "_newValue",
          "type": "uint256"
        }
      ],
      "name": "NewValueRegistered",
      "type": "event"
    },
    {
      "constant": false,
      "inputs": [
        {
          "name": "_key",
          "type": "string"
        },
        {
          "name": "_value",
          "type": "uint256"
        }
      ],
      "name": "register",
      "outputs": [],
      "payable": false,
      "stateMutability": "nonpayable",
      "type": "function"
    },
    {
      "constant": true,
      "inputs": [
        {
          "name": "_key",
          "type": "string"
        }
      ],
      "name": "get",
      "outputs": [
        {
          "name": "",
          "type": "uint256"
        }
      ],
      "payable": false,
      "stateMutability": "view",
      "type": "function"
    }
  ],
  "bytecode": "0x608060405234801561001057600080fd5b506102a3806100206000396000f30060806040526004361061004c576000357c0100000000000000000000000000000000000000000000000000000000900463ffffffff168063693ec85e14610051578063ea87152b146100ce575b600080fd5b34801561005d57600080fd5b506100b8600480360381019080803590602001908201803590602001908080601f0160208091040260200160405190810160405280939291908181526020018383808284378201915050505050509192919290505050610141565b6040518082815260200191505060405180910390f35b3480156100da57600080fd5b5061013f600480360381019080803590602001908201803590602001908080601f0160208091040260200160405190810160405280939291908181526020018383808284378201915050505050509192919290803590602001909291905050506101b5565b005b600080826040518082805190602001908083835b60208310151561017a5780518252602082019150602081019050602083039250610155565b6001836020036101000a0380198251168184511680821785525050505050509050019150509081526020016040518091039020549050919050565b806000836040518082805190602001908083835b6020831015156101ee57805182526020820191506020810190506020830392506101c9565b6001836020036101000a0380198251168184511680821785525050505050509050019150509081526020016040518091039020819055503373ffffffffffffffffffffffffffffffffffffffff167f05c4e16036b2253cd8627d272d255dfaddfd1f0e2f40f303b00a03726a70e5dc826040518082815260200191505060405180910390a250505600a165627a7a72305820f47c8a572db86e83e02e56076ec149c7dce83bfcc332e336126c641aae006e010029",
  "source": "pragma solidity ^0.4.20;\n\ncontract SimpleRegistry {\n\n  mapping (string => uint) registry;\n\n  event NewValueRegistered(address indexed _from, uint _newValue);\n\n  function register(string _key, uint _value) public {\n    registry[_key] = _value;\n    emit NewValueRegistered(msg.sender, _value);\n  }\n\n  function get(string _key) public view returns (uint) {\n    return registry[_key];\n  }\n\n}\n",
  "sourcePath": "/home/venkatesh/india-training/June-24/truffle-uport/contracts/SimpleRegistry.sol",
  "compiler": {
    "name": "solc",
    "version": "0.4.24+commit.e67f0147.Emscripten.clang"
  },
  "schemaVersion": "2.0.0",
  "updatedAt": "2018-06-27T10:54:43.799Z"
}